{
  "_format": "hh3-artifact-1",
  "contractName": "CertificateRegistry",
  "sourceName": "contracts/CertificateRegistry.sol",
  "abi": [
    {
      "inputs": [],
      "stateMutability": "nonpayable",
      "type": "constructor"
    },
    {
      "anonymous": false,
      "inputs": [
        {
          "indexed": true,
          "internalType": "bytes32",
          "name": "certHash",
          "type": "bytes32"
        },
        {
          "indexed": true,
          "internalType": "address",
          "name": "issuer",
          "type": "address"
        },
        {
          "indexed": true,
          "internalType": "address",
          "name": "student",
          "type": "address"
        },
        {
          "indexed": false,
          "internalType": "string",
          "name": "ipfsCID",
          "type": "string"
        },
        {
          "indexed": false,
          "internalType": "uint256",
          "name": "timestamp",
          "type": "uint256"
        }
      ],
      "name": "CertificateIssued",
      "type": "event"
    },
    {
      "anonymous": false,
      "inputs": [
        {
          "indexed": true,
          "internalType": "bytes32",
          "name": "certHash",
          "type": "bytes32"
        },
        {
          "indexed": true,
          "internalType": "address",
          "name": "revokedBy",
          "type": "address"
        },
        {
          "indexed": false,
          "internalType": "uint256",
          "name": "timestamp",
          "type": "uint256"
        }
      ],
      "name": "CertificateRevoked",
      "type": "event"
    },
    {
      "anonymous": false,
      "inputs": [
        {
          "indexed": true,
          "internalType": "address",
          "name": "issuerAddr",
          "type": "address"
        },
        {
          "indexed": false,
          "internalType": "string",
          "name": "name",
          "type": "string"
        },
        {
          "indexed": false,
          "internalType": "uint256",
          "name": "timestamp",
          "type": "uint256"
        }
      ],
      "name": "IssuerAdded",
      "type": "event"
    },
    {
      "anonymous": false,
      "inputs": [
        {
          "indexed": true,
          "internalType": "address",
          "name": "issuerAddr",
          "type": "address"
        },
        {
          "indexed": false,
          "internalType": "uint256",
          "name": "timestamp",
          "type": "uint256"
        }
      ],
      "name": "IssuerRemoved",
      "type": "event"
    },
    {
      "inputs": [
        {
          "internalType": "address",
          "name": "_issuerAddr",
          "type": "address"
        },
        {
          "internalType": "string",
          "name": "_name",
          "type": "string"
        }
      ],
      "name": "addIssuer",
      "outputs": [],
      "stateMutability": "nonpayable",
      "type": "function"
    },
    {
      "inputs": [],
      "name": "admin",
      "outputs": [
        {
          "internalType": "address",
          "name": "",
          "type": "address"
        }
      ],
      "stateMutability": "view",
      "type": "function"
    },
    {
      "inputs": [
        {
          "internalType": "bytes32",
          "name": "",
          "type": "bytes32"
        }
      ],
      "name": "certificates",
      "outputs": [
        {
          "internalType": "bytes32",
          "name": "certHash",
          "type": "bytes32"
        },
        {
          "internalType": "string",
          "name": "ipfsCID",
          "type": "string"
        },
        {
          "internalType": "address",
          "name": "issuer",
          "type": "address"
        },
        {
          "internalType": "address",
          "name": "student",
          "type": "address"
        },
        {
          "internalType": "uint256",
          "name": "issuedAt",
          "type": "uint256"
        },
        {
          "internalType": "uint256",
          "name": "revokedAt",
          "type": "uint256"
        },
        {
          "internalType": "bool",
          "name": "isRevoked",
          "type": "bool"
        }
      ],
      "stateMutability": "view",
      "type": "function"
    },
    {
      "inputs": [
        {
          "internalType": "string",
          "name": "_studentName",
          "type": "string"
        },
        {
          "internalType": "string",
          "name": "_degreeType",
          "type": "string"
        },
        {
          "internalType": "uint256",
          "name": "_graduationYear",
          "type": "uint256"
        },
        {
          "internalType": "uint256",
          "name": "_gpa",
          "type": "uint256"
        },
        {
          "internalType": "address",
          "name": "_studentAddr",
          "type": "address"
        }
      ],
      "name": "computeCertHash",
      "outputs": [
        {
          "internalType": "bytes32",
          "name": "",
          "type": "bytes32"
        }
      ],
      "stateMutability": "pure",
      "type": "function"
    },
    {
      "inputs": [
        {
          "internalType": "address",
          "name": "_student",
          "type": "address"
        }
      ],
      "name": "getStudentCertificates",
      "outputs": [
        {
          "internalType": "bytes32[]",
          "name": "",
          "type": "bytes32[]"
        }
      ],
      "stateMutability": "view",
      "type": "function"
    },
    {
      "inputs": [
        {
          "internalType": "address",
          "name": "_student",
          "type": "address"
        },
        {
          "internalType": "bytes32",
          "name": "_certHash",
          "type": "bytes32"
        },
        {
          "internalType": "string",
          "name": "_ipfsCID",
          "type": "string"
        }
      ],
      "name": "issueCertificate",
      "outputs": [],
      "stateMutability": "nonpayable",
      "type": "function"
    },
    {
      "inputs": [
        {
          "internalType": "address",
          "name": "",
          "type": "address"
        }
      ],
      "name": "issuers",
      "outputs": [
        {
          "internalType": "string",
          "name": "name",
          "type": "string"
        },
        {
          "internalType": "bool",
          "name": "isActive",
          "type": "bool"
        },
        {
          "internalType": "uint256",
          "name": "addedAt",
          "type": "uint256"
        }
      ],
      "stateMutability": "view",
      "type": "function"
    },
    {
      "inputs": [
        {
          "internalType": "address",
          "name": "_issuerAddr",
          "type": "address"
        }
      ],
      "name": "removeIssuer",
      "outputs": [],
      "stateMutability": "nonpayable",
      "type": "function"
    },
    {
      "inputs": [
        {
          "internalType": "bytes32",
          "name": "_certHash",
          "type": "bytes32"
        }
      ],
      "name": "revokeCertificate",
      "outputs": [],
      "stateMutability": "nonpayable",
      "type": "function"
    },
    {
      "inputs": [
        {
          "internalType": "address",
          "name": "",
          "type": "address"
        },
        {
          "internalType": "uint256",
          "name": "",
          "type": "uint256"
        }
      ],
      "name": "studentCertificates",
      "outputs": [
        {
          "internalType": "bytes32",
          "name": "",
          "type": "bytes32"
        }
      ],
      "stateMutability": "view",
      "type": "function"
    },
    {
      "inputs": [
        {
          "internalType": "address",
          "name": "_newAdmin",
          "type": "address"
        }
      ],
      "name": "transferAdmin",
      "outputs": [],
      "stateMutability": "nonpayable",
      "type": "function"
    },
    {
      "inputs": [
        {
          "internalType": "bytes32",
          "name": "_certHash",
          "type": "bytes32"
        }
      ],
      "name": "verifyCertificate",
      "outputs": [
        {
          "internalType": "bool",
          "name": "isValid",
          "type": "bool"
        },
        {
          "internalType": "address",
          "name": "issuer",
          "type": "address"
        },
        {
          "internalType": "address",
          "name": "student",
          "type": "address"
        },
        {
          "internalType": "string",
          "name": "ipfsCID",
          "type": "string"
        },
        {
          "internalType": "uint256",
          "name": "issuedAt",
          "type": "uint256"
        },
        {
          "internalType": "bool",
          "name": "isRevoked",
          "type": "bool"
        }
      ],
      "stateMutability": "view",
      "type": "function"
    },
    {
      "inputs": [
        {
          "internalType": "address",
          "name": "_issuerAddr",
          "type": "address"
        }
      ],
      "name": "verifyIssuer",
      "outputs": [
        {
          "internalType": "bool",
          "name": "",
          "type": "bool"
        }
      ],
      "stateMutability": "view",
      "type": "function"
    }
  ],
  "bytecode": "0x6080604052348015600e575f5ffd5b505f80546001600160a01b031916331790556113908061002d5f395ff3fe608060405234801561000f575f5ffd5b50600436106100cb575f3560e01c8063850c176811610088578063c3934f0e11610063578063c3934f0e146101f3578063c6cbc52a14610206578063ebc63bc014610219578063f851a44014610239575f5ffd5b8063850c1768146101a85780638e08ef4c146101cd5780638fc0859a146101e0575f5ffd5b806338a7543e146100cf5780633b270c54146100fa57806347bc70931461011b57806360c000d414610130578063742f06881461016f57806375829def14610195575b5f5ffd5b6100e26100dd366004610de4565b610263565b6040516100f193929190610e32565b60405180910390f35b61010d610108366004610e9b565b61030e565b6040519081526020016100f1565b61012e610129366004610de4565b61034f565b005b61015f61013e366004610de4565b6001600160a01b03165f908152600160208190526040909120015460ff1690565b60405190151581526020016100f1565b61018261017d366004610f2c565b61044b565b6040516100f19796959493929190610f43565b61012e6101a3366004610de4565b61051c565b6101bb6101b6366004610f2c565b6105b4565b6040516100f196959493929190610f93565b61012e6101db366004610fe0565b6106d8565b61012e6101ee366004611036565b6109e1565b61010d610201366004611085565b610b79565b61012e610214366004610f2c565b610ba4565b61022c610227366004610de4565b610d60565b6040516100f191906110ad565b5f5461024b906001600160a01b031681565b6040516001600160a01b0390911681526020016100f1565b60016020525f908152604090208054819061027d906110ef565b80601f01602080910402602001604051908101604052809291908181526020018280546102a9906110ef565b80156102f45780601f106102cb576101008083540402835291602001916102f4565b820191905f5260205f20905b8154815290600101906020018083116102d757829003601f168201915b505050506001830154600290930154919260ff1691905083565b5f8787878787878760405160200161032c979695949392919061114f565b604051602081830303815290604052805190602001209050979650505050505050565b5f546001600160a01b031633146103815760405162461bcd60e51b81526004016103789061119e565b60405180910390fd5b6001600160a01b0381165f908152600160208190526040909120015460ff166103ec5760405162461bcd60e51b815260206004820152601a60248201527f436572745265673a20697373756572206e6f74206163746976650000000000006044820152606401610378565b6001600160a01b0381165f8181526001602081905260409182902001805460ff19169055517f7d646dfe52f77b8ef31868b9cddadbd17ee190aba7615b1c4c456bf6e5f5a2da906104409042815260200190565b60405180910390a250565b60026020525f90815260409020805460018201805491929161046c906110ef565b80601f0160208091040260200160405190810160405280929190818152602001828054610498906110ef565b80156104e35780601f106104ba576101008083540402835291602001916104e3565b820191905f5260205f20905b8154815290600101906020018083116104c657829003601f168201915b505050600284015460038501546004860154600587015460069097015495966001600160a01b0393841696929093169450925060ff1687565b5f546001600160a01b031633146105455760405162461bcd60e51b81526004016103789061119e565b6001600160a01b0381166105935760405162461bcd60e51b8152602060048201526015602482015274436572745265673a207a65726f206164647265737360581b6044820152606401610378565b5f80546001600160a01b0319166001600160a01b0392909216919091179055565b5f8181526002602081905260408220908101548291829160609183918291906001600160a01b031661060457505060408051602081019091525f80825295508594508493509150829050806106cf565b60068101546002820154600383015460018401805460ff909416159a506001600160a01b039283169950911696509061063c906110ef565b80601f0160208091040260200160405190810160405280929190818152602001828054610668906110ef565b80156106b35780601f1061068a576101008083540402835291602001916106b3565b820191905f5260205f20905b81548152906001019060200180831161069657829003601f168201915b50505060048401546006909401549296509294505060ff169150505b91939550919395565b335f908152600160208190526040909120015460ff1661070a5760405162461bcd60e51b8152600401610378906111d5565b6001600160a01b0384166107605760405162461bcd60e51b815260206004820152601d60248201527f436572745265673a207a65726f2073747564656e7420616464726573730000006044820152606401610378565b826107ad5760405162461bcd60e51b815260206004820152601860248201527f436572745265673a20656d7074792063657274206861736800000000000000006044820152606401610378565b806107fa5760405162461bcd60e51b815260206004820152601760248201527f436572745265673a20656d7074792049504653204349440000000000000000006044820152606401610378565b5f83815260026020819052604090912001546001600160a01b03161561086e5760405162461bcd60e51b815260206004820152602360248201527f436572745265673a20636572746966696361746520616c72656164792065786960448201526273747360e81b6064820152608401610378565b6040518060e0016040528084815260200183838080601f0160208091040260200160405190810160405280939291908181526020018383808284375f9201829052509385525050336020808501919091526001600160a01b0389166040808601919091524260608601526080850184905260a09094018390528783526002815292909120835181559183015160018301915061090a908261127c565b506040828101516002830180546001600160a01b03199081166001600160a01b0393841617909155606085015160038086018054909316918416919091179091556080850151600485015560a0850151600585015560c0909401516006909301805460ff1916931515939093179092559086165f8181526020938452828120805460018101825590825293902090920185905551339085907fa21c7139ad6212af2dcf36d1b6621d7a6d565d2a94c45e9008129e11678f1926906109d390879087904290611337565b60405180910390a450505050565b5f546001600160a01b03163314610a0a5760405162461bcd60e51b81526004016103789061119e565b6001600160a01b038316610a585760405162461bcd60e51b8152602060048201526015602482015274436572745265673a207a65726f206164647265737360581b6044820152606401610378565b80610a9b5760405162461bcd60e51b8152602060048201526013602482015272436572745265673a20656d707479206e616d6560681b6044820152606401610378565b604051806060016040528083838080601f0160208091040260200160405190810160405280939291908181526020018383808284375f920182905250938552505060016020808501829052426040958601526001600160a01b038916845252502081518190610b0a908261127c565b50602082015160018201805460ff1916911515919091179055604091820151600290910155516001600160a01b038416907ff31702fba09dcc6a552ee9bf0ec92977afc8d522fe8c5f59b4f3f2f09593fdd590610b6c90859085904290611337565b60405180910390a2505050565b6003602052815f5260405f208181548110610b92575f80fd5b905f5260205f20015f91509150505481565b335f908152600160208190526040909120015460ff16610bd65760405162461bcd60e51b8152600401610378906111d5565b5f818152600260208190526040909120908101546001600160a01b0316610c3f5760405162461bcd60e51b815260206004820152601e60248201527f436572745265673a206365727469666963617465206e6f7420666f756e6400006044820152606401610378565b60028101546001600160a01b03163314610cb25760405162461bcd60e51b815260206004820152602e60248201527f436572745265673a2063616c6c657220646964206e6f7420697373756520746860448201526d697320636572746966696361746560901b6064820152608401610378565b600681015460ff1615610d075760405162461bcd60e51b815260206004820152601860248201527f436572745265673a20616c7265616479207265766f6b656400000000000000006044820152606401610378565b60068101805460ff191660011790554260058201819055604051339184917f85fe6dd2dfc4757558754564c7ff020182ec3c918257c2ff3a217a63791ec24f91610d549190815260200190565b60405180910390a35050565b6001600160a01b0381165f90815260036020908152604091829020805483518184028101840190945280845260609392830182828015610dbd57602002820191905f5260205f20905b815481526020019060010190808311610da9575b50505050509050919050565b80356001600160a01b0381168114610ddf575f5ffd5b919050565b5f60208284031215610df4575f5ffd5b610dfd82610dc9565b9392505050565b5f81518084528060208401602086015e5f602082860101526020601f19601f83011685010191505092915050565b606081525f610e446060830186610e04565b93151560208301525060400152919050565b5f5f83601f840112610e66575f5ffd5b50813567ffffffffffffffff811115610e7d575f5ffd5b602083019150836020828501011115610e94575f5ffd5b9250929050565b5f5f5f5f5f5f5f60a0888a031215610eb1575f5ffd5b873567ffffffffffffffff811115610ec7575f5ffd5b610ed38a828b01610e56565b909850965050602088013567ffffffffffffffff811115610ef2575f5ffd5b610efe8a828b01610e56565b9096509450506040880135925060608801359150610f1e60808901610dc9565b905092959891949750929550565b5f60208284031215610f3c575f5ffd5b5035919050565b87815260e060208201525f610f5b60e0830189610e04565b6001600160a01b039788166040840152959096166060820152608081019390935260a0830191909152151560c0909101529392505050565b86151581526001600160a01b0386811660208301528516604082015260c0606082018190525f90610fc690830186610e04565b60808301949094525090151560a090910152949350505050565b5f5f5f5f60608587031215610ff3575f5ffd5b610ffc85610dc9565b935060208501359250604085013567ffffffffffffffff81111561101e575f5ffd5b61102a87828801610e56565b95989497509550505050565b5f5f5f60408486031215611048575f5ffd5b61105184610dc9565b9250602084013567ffffffffffffffff81111561106c575f5ffd5b61107886828701610e56565b9497909650939450505050565b5f5f60408385031215611096575f5ffd5b61109f83610dc9565b946020939093013593505050565b602080825282518282018190525f918401906040840190835b818110156110e45783518352602093840193909201916001016110c6565b509095945050505050565b600181811c9082168061110357607f821691505b60208210810361112157634e487b7160e01b5f52602260045260245ffd5b50919050565b81835281816020850137505f828201602090810191909152601f909101601f19169091010190565b60a081525f61116260a08301898b611127565b828103602084015261117581888a611127565b6040840196909652505060608101929092526001600160a01b0316608090910152949350505050565b6020808252601c908201527f436572745265673a2063616c6c6572206973206e6f742061646d696e00000000604082015260600190565b60208082526027908201527f436572745265673a2063616c6c6572206973206e6f7420616e206163746976656040820152661034b9b9bab2b960c91b606082015260800190565b634e487b7160e01b5f52604160045260245ffd5b601f82111561127757805f5260205f20601f840160051c810160208510156112555750805b601f840160051c820191505b81811015611274575f8155600101611261565b50505b505050565b815167ffffffffffffffff8111156112965761129661121c565b6112aa816112a484546110ef565b84611230565b6020601f8211600181146112dc575f83156112c55750848201515b5f19600385901b1c1916600184901b178455611274565b5f84815260208120601f198516915b8281101561130b57878501518255602094850194600190920191016112eb565b508482101561132857868401515f19600387901b60f8161c191681555b50505050600190811b01905550565b604081525f61134a604083018587611127565b905082602083015294935050505056fea2646970667358221220314a651a2a80df35ba9a6b9cc59f93e370731e508e02b9d45fefc38bdb88455964736f6c634300081c0033",
  "linkReferences": {},
  "deployedLinkReferences": {},
  "immutableReferences": {},
  "inputSourceName": "project/contracts/CertificateRegistry.sol",
  "buildInfoId": "solc-0_8_28-db6b796d28c9ad31076b87cb22e5e922fb0a8cde"
}